:1000000000040020A90000009D0000009D000000E9
:1000100080B483B000AF1C4B20221A6000237B60A9
:1000200002E07B6801337B607B68C72BF9D9174BF3
:100030001B68164A43F008031360154B1B68144AEB
:1000400043F008031360134B1B68124A43F0080384
:10005000136000237B6002E07B6801337B607B6878
:100060000D4A9342F8D90B4B1B680A4A23F0080348
:10007000136000237B6002E07B6801337B607B6858
:10008000054A9342F8D9DEE708E10F4000540240E8
:100090001C550240FC5302403F0D030080B500AFE9
:1000A00000F002F800BF80BD80B586B000AF1A4AEC
:1000B0001A4BD31A7B601A4B7B61184B3B610023B0
:1000C000FB600AE07A69531C7B613B69591C39610A
:1000D00012781A70FB680133FB60FA687B689A42F9
:1000E000F0D3104A104BD31A3B600F4B3B610023F7
:1000F000BB6007E03B695A1C3A6100221A70BB687A
:100100000133BB60BA683B689A42F3D3FFF780FFC4
:1001100000BF1837BD4680BD000000200000002051
:0C0120002C010000000400200000002062
:00000001FF
