:020000040800F2
:1000000008100020D1010008C5010008C501000842
:10001000C5010008C5010008C501000880B500AF92
:10002000024B1B68984700BF80BD00BF081000202E
:1000300080B500AF002000F02BF8024800F00CF86B
:1000400000BF80BD40787D0180B500AF012000F089
:100050001FF800BF80BD00BF80B483B000AF7860E0
:1000600002E07B68013B7B607B68002BF9D100BF1D
:100070000C37BD4680BC704780B400AF034B1B6893
:10008000DBB21846BD4680BC704700BF080801407F
:1000900080B483B000AF78607B68012B06D10A4B37
:1000A0001B68094A43F40053136008E07B68002B87
:1000B00005D1054B1B68044A23F40053136000BFAD
:1000C0000C37BD4680BC70470C08014080B400AFBF
:1000D0000F4B1B680E4A43F0040313600D4B1B6863
:1000E0000C4A23F4700313600A4B0A4A1B6813601E
:1000F000094B1B68084A23F470031360064B1B6806
:10010000054A43F02233136000BFBD4680BC7047F0
:1001100018100240000801400408014080B500AFFB
:10012000FFF7D4FF00F016F8FCE7000080B400AF42
:10013000064B1A68064B1B689A4201D3002300E065
:1001400001231846BD4680BC704700BF0400002054
:100150000000002080B500AF0E4800F025F8FFF742
:10016000E5FF0346002B0DD10B4B0C4A1A60FFF73D
:1001700055FF094B0A4A1A60FFF750FF0948FFF77D
:100180006BFF04E0044B064A1A60FFF747FF00BF0D
:1001900080BD00BF040000200810002031000008CE
:1001A000490000088096980080B582B000AF786062
:1001B000FFF762FF02467B681A6000BF0837BD4642
:1001C00080BD000080B500AF00F002F800BF80BD28
:1001D00080B586B000AF1B4A1B4BD31A7B601B4B0C
:1001E0007B61194B3B610023FB600AE07A69531C79
:1001F0007B613B69591C396112781A70FB680133C5
:10020000FB60FA687B689A42F0D3114A114BD31A0B
:100210009B103B600F4B3B610023BB6007E03B69D9
:100220005A1C3A6100221A70BB680133BB60BA687D
:100230003B689A42F3D3FFF771FF00BF1837BD4602
:1002400080BD00BF0400002000000020580200080C
:0802500008000020040000205A
:04025800140000008E
:0400000508000000EF
:00000001FF
