:020000040800F2
:1000000004100020A50000089900000899000008CD
:1000100099000008990000089900000880B483B096
:1000200000AF1A4B1B68194A43F004031360184BC6
:100030001B68174A23F470031360154B1B68144A9E
:1000400043F400131360134B1A68138843F40053EE
:10005000138000237B6002E07B6801337B607B6858
:1000600041F287329342F7D90A4B1A6813886FF32B
:100070004D33138000233B6002E03B6801333B605B
:100080003B6841F287329342F7D9DCE7181002400F
:10009000040801400000002080B500AF00F002F825
:1000A00000BF80BD80B586B000AF1B4A1B4BD31A82
:1000B0007B601B4B7B61194B3B610023FB600AE0BB
:1000C0007A69531C7B613B69591C396112781A703B
:1000D000FB680133FB60FA687B689A42F0D3114AEF
:1000E000114BD31A9B103B600F4B3B610023BB604D
:1000F00007E03B695A1C3A6100221A70BB68013361
:10010000BB60BA683B689A42F3D3FFF787FF00BF32
:100110001837BD4680BD00BF04000020000000204D
:0C0120002C010008040000200400002056
:04012C000C0801407A
:0400000508000000EF
:00000001FF
